:040000006F20E04A43
:100004000000000000000000261E0000361E000054
:1000140000000000AC24000000000000000000000C
:10002400AC240000AC24000000000000000000002C
:10003400AC24000000000000AC240000000000001C
:10004400AC240000AC240000AC240000AC2400006C
:10005400AC240000AC240000AC240000AC2400005C
:10006400AC240000AC240000AC240000AC2400004C
:10007400AC240000AC240000AC240000AC2400003C
:10008400AC240000AC240000AC240000AC2400002C
:10009400AC240000AC240000AC240000AC2400001C
:1000A400AC240000AC240000AC240000AC2400000C
:1000B4003E1E0000AC240000AC240000AC24000070
:1000C400AC240000AC240000AC240000AC240000EC
:1000D400AC240000AC240000AC240000AC240000DC
:1000E400AC240000AC240000AC240000AC240000CC
:1000F400AC240000AC240000AC240000AC240000BC
:1001040000000000AC240000AC240000AC2400007B
:10011400AC240000AC240000AC240000AC2400009B
:10012400AC240000AC240000AC240000AC2400008B
:10013400AC240000AC240000AC240000AC2400007B
:10014400AC240000AC240000AC240000AC2400006B
:10015400AC240000FC070000AC240000AC24000028
:10016400AC240000AC240000AC240000AC2400004B
:10017400AC240000AC240000AC240000AC2400003B
:10018400AC240000AC240000AC240000AC2400002B
:10019400AC240000AC240000AC240000AC2400001B
:1001A400000000000000000000000000000000004B
:0C01B4000000000000000000000000003F
:1001C0003D432A876373C3029377F700BDEFADE524
:1001D000937606FF3D8ABA960CC34CC30CC74CC736
:1001E0004107E36BD7FE11E28280B306C3408A0663
:1001F0009702000096966780A6002307B700A30623
:10020000B7002306B700A305B7002305B700A30472
:10021000B7002304B700A303B7002303B700A3026A
:10022000B7002302B700A301B7002301B700A30062
:10023000B7002300B700828093F5F50F93968500F1
:10024000D58D93960501D58D61B7939627009702BA
:10025000000096968682E78086FA9680C1171D8FE9
:100260003E96E374C3F8A5B7411122C6000883C7C0
:10027000818193F7F70F93F7F70713F7F70F238CA5
:10028000E18083D7418213970701418393070010D0
:100290006316F704B73702409387074083C76700A8
:1002A00013F7F70FB737024093870740719B137717
:1002B000F70F2383E700B73702409387074083C7D0
:1002C000670013F7F70FB7370240938707401367AC
:1002D00027001377F70F2383E7004DA483D74182CC
:1002E000139707014183930700206316F704B7377C
:1002F00002409387074083C7670013F7F70FB737AC
:10030000024093870740719B1377F70F2383E70021
:10031000B73702409387074083C7670013F7F70F8B
:10032000B737024093870740136737001377F70FFB
:100330002383E700A1A483D7418213970701418358
:10034000930700306312F704B737024093870740E2
:1003500083C7670013F7F70FB7370240938707404B
:10036000719B1377F70F2383E700B737024013879A
:100370000740B7370240938707400347670013776A
:10038000F70F2383E700DDAA83D741821397070184
:100390004183930700406313F71EB73702409387EA
:1003A000074083C7670013F7F70FB73702409387FB
:1003B0000740719B1377F70F2383E700B73702409D
:1003C0009387074083C7670013F7F70FB7370240DB
:1003D00093870740136717001377F70F2383E7000E
:1003E000B73702409387074083C7070013F7F70F1B
:1003F000B737024093870740136707F81377F70F63
:100400002380E700B73702409387074003C70701FF
:10041000018B136787002388E70003C71701018B4F
:10042000A388E70003C72701018B136747002389CF
:10043000E70003C73701018BA389E700B737024004
:100440009387074003C747011377F70F83C6570108
:1004500093F6F60FA206558F83C6670193F6F60F43
:10046000C206558F83C7770193F7F70FE207D98F3D
:100470003E87B7370240938707401367F70F93759E
:10048000F70F83C64701818A3686AE86D18E238ACE
:10049000D7009356870093F5F60F83C65701818ADC
:1004A0003686AE86D18EA38AD7009356070193F580
:1004B000F60F83C66701818A3686AE86D18E238B7E
:1004C000D7001356870103C77701018BBA8632879D
:1004D000558FA38BE700B737024093870740370754
:1004E0000020130707009375F70F83C64706818A1C
:1004F0003686AE86D18E2382D7069356870093F533
:10050000F60F83C65706818A3686AE86D18EA382C1
:10051000D7069356070193F5F60F83C66706818ABF
:100520003686AE86D18E2383D7061356870103C73E
:100530007706018BBA863287558FA383E706B737D4
:1005400002409387074003C7470E018B1367570389
:100550002382E70E03C7570E018BA382E70EB7373E
:10056000024093870740130700FD2380E70EB7374B
:1005700002409387074009472385E7000100324482
:1005800041018280411106C622C400080545EF20C2
:10059000503F0145EF2070330545EF20502F0545B2
:1005A000EF2070360545EF20D039854585671385E6
:1005B0000780EF20F0170100B24022444101828001
:1005C000011122CE0010B73702409387074037074A
:1005D0000C00310798CBB7370240938707401307C9
:1005E0000004239CE708B7370240938707401307AE
:1005F00000202390E70AB73702409387074013078C
:1006000000202392E70AB7370240938707401387F9
:100610008184D8CFB737024093870740138781A8DA
:1006200098D7B737024093870740138741CCD8D378
:10063000B737024093870740370700201307871C0E
:10064000B8D3B737024093870740239C070CB737CE
:100650000240938707400947238DE70CB7370240D4
:1006600093870740A38D070CB73702409387074055
:100670002390070EB737024093870740094723812D
:10068000E70EB737024093870740A381070EB737BD
:100690000240938707402392070EB73702409387A3
:1006A000074009472383E70EB73702409387074087
:1006B000A383070EA30704FE29A80347F4FE93872C
:1006C00081C8BA97238007008347F4FE8507A307F4
:1006D000F4FE0347F4FEBD47E3F1E7FE0100724478
:1006E00005618280797106D622D40018232EA4FCDD
:1006F0008327C4FDDDCBB7370240938707401947F6
:100700002380E7002945EF308029B73702409387DF
:10071000074083C7070013F7F70FB73702409387E7
:1007200007406D9B1377F70F2380E700B737024030
:10073000938707404147A380E700B737024093877C
:100740000740130790022380E700B73702409387E2
:100750000740130770022381E7009D35B737024039
:100760009387074083C7070013F7F70FB737024097
:1007700093870740136707011377F70F2380E7007C
:10078000930750052326F4FE8327C4FEFD8B0547FF
:10079000B316F70037E700E08327C4FE95839387FD
:1007A00007048A07BA9794C3A9A0B7370240938772
:1007B000074019472380E7002945EF30401EB7372F
:1007C00002409387074023800700930750052324A6
:1007D000F4FE832784FEFD8B0547B316F70037E749
:1007E00000E0832784FE9583938707068A07BA97DC
:1007F00094C30100B250225445618280011122CE7F
:100800000010B73702409387074083C7A700A305AE
:10081000F4FEB73702409387074083C7B70023052C
:10082000F4FE8347B4FE898B638F075C8347A4FE85
:1008300093F707034147638EE75A13070002638566
:10084000E700638407227DA38347A4FE93F7F703A1
:1008500013072002638FE710130730026389E7183C
:1008600013070002639FE71E83D76182C207C1831B
:1008700081EBB7370240938707402147A38DE70CF0
:1008800083C7118293F7F70F93F70706E9EB83C746
:10089000018293F7F70F15476381E70A19476399B8
:1008A000E70A83D761821397070141839307F00317
:1008B00063E7E70083D76182C207C18319A093076A
:1008C00000042316F4FE83A7C1810357C4FE3A86B1
:1008D000BE8513858184EF30403383D761821397BF
:1008E000070141838357C4FEB307F74013970701FD
:1008F00041832393E18203A7C1818357C4FE3E97BE
:1009000023AEE180B7370240938707400357C4FE08
:10091000239CE70CB73702409387074083C7A70D96
:1009200013F7F70FB7370240938707401347870045
:100930001377F70F238DE70C1DA0B737024093877D
:10094000074003C791821377F70FA381E70001A83F
:10095000B737024093870740239C070C010083C7E9
:10096000818193F7F70FE207E18763DE070EED3829
:10097000DDA8B73702409387074083C7270E93F758
:10098000F70FE207E187F19BE207E18793E7270092
:10099000139787016187B737024093870740137722
:1009A000F70F2381E70EB73702409387074083C7CD
:1009B000270E13F7F70FB737024093870740134707
:1009C00087001377F70F2381E70E938781C883C7CA
:1009D000270093F7F70FF99B13F7F70F938781C859
:1009E0002381E700938781C9238C0700B5A8B73717
:1009F00002409387074083C7670E93F7F70FE2071C
:100A0000E187F19BE207E18793E7270013978701CE
:100A10006187B7370240938707401377F70F238327
:100A2000E70EB73702409387074083C7670E13F777
:100A3000F70FB737024093870740134787001377B4
:100A4000F70F2383E70E938781C883C7370093F797
:100A5000F70FF99B13F7F70F938781C8A381E7007E
:100A600021A0010041AE010071A68347A4FE93F7C7
:100A7000F70389C709476388E714B5A6B73702406B
:100A80009387074003C7C7001377F70F83C7D700C3
:100A900093F7F70FA207D98F2316F4FE8347A4FE1E
:100AA00093F707046385073483C7118293F7F70F21
:100AB00093F707066385070E2393018283C701829C
:100AC00013F7F70F93070002631BF70C03C781842A
:100AD000938781C9238FE7009387818403C7170019
:100AE000938781C9A38FE7009387818403C7270079
:100AF000938781C92380E7029387818403C73700E6
:100B0000938781C9A380E7029387818403C7470045
:100B1000938781C92381E7029387818403C75700A4
:100B2000938781C9A381E7029387818403C7670004
:100B3000938781C92382E702938781C97947A3827A
:100B4000E70283C781842322F4FE9387818483C7CD
:100B50001700A207032744FEBA972322F4FE9387C7
:100B6000818483C72700C207032744FEBA97232244
:100B7000F4FE9387818483C73700E207032744FE8E
:100B8000BA972322F4FE938781C983C7770013F7AE
:100B9000F70F938781C9A382E702EF10601B83D709
:100BA0006182C207C18363940724B73702409387E9
:100BB0000740239C070CB737024093870740214723
:100BC000238DE70C2DA4B73702409387074083C7D6
:100BD000370E13F7F70FB7370240938707401347D5
:100BE00087001377F70FA381E70EB737024013870B
:100BF0000740938681C983C6860093F6F60F9387D4
:100C000081C983C7970093F7F70FA207D58FC20753
:100C1000C183BE868357C7001397070141838606A9
:100C2000938781C9B6979375F70F83C6E700818ACA
:100C30003686AE86D18E2387D7002183131607010F
:100C4000418203C7F700018BBA863287558FA3878D
:100C5000E700138781C9034787001377F70F93874E
:100C600081C983C7970093F7F70FA207D98FC207EF
:100C7000C1838507139707014183938781C99375C2
:100C8000F70F83C68700818A3686AE86D18E23848D
:100C9000D700218313160701418203C79700018BF8
:100CA000BA863287558FA384E700138781C903472B
:100CB00087001377F70F938781C983C7970093F74E
:100CC000F70FA207D98FC207C183139797009387A5
:100CD00041CC3E97B737024093870740D8D313875C
:100CE00081C9034787001377F70F938781C983C7AB
:100CF000970093F7F70FA207D98F13970701418346
:100D0000854763F5E702938781C903C78700018B95
:100D10002384E70003C79700018BA384E700B7375C
:100D2000024093870740138741CCD8D3138781C9EA
:100D30000347C7001377F70F938781C983C7D7008D
:100D400093F7F70FA207D98FC207C18385071397BF
:100D500007014183938781C99375F70F83C6C70045
:100D6000818A3686AE86D18E2386D70021831316DC
:100D70000701418203C7D700018BBA863287558F9E
:100D8000A386E700138781C90347C700938781C9FA
:100D900083C7D700B73702409387074083C7370E12
:100DA00013F7F70FB737024093870740719B13770C
:100DB000F70FA381E70EB73702409387074083C739
:100DC000370E13F7F70FB7370240938707401367C3
:100DD00027001377F70FA381E70E938781C9054793
:100DE000A38EE70031A0FD57A307F4FE11A0010078
:100DF00011A00100B73702409387074009472385B8
:100E0000E7006F00901D8347B4FE93F70702E3816C
:100E10000712B7370240938707402947238DE70C15
:100E2000B7370240938707402947A38DE70C938784
:100E3000818403C70700A380E1829387818403C76D
:100E400017002380E1829387818403C7670083C7EB
:100E50007700A207D98F1397070141832393E1827B
:100E60009387818403C7270083C73700A207D98FE0
:100E70001397070141832391E1829387818403C7FC
:100E8000470083C75700A207D98F139707014183F3
:100E90002392E182231604FEA30704FE83C7118276
:100EA00093F7F70F93F70706E1C783C7118293F70C
:100EB000F70F93F70702A1CB83C7018293F7F70FD0
:100EC000130710026384E702130710026347F70059
:100ED000130700026384E70415A01307200263814F
:100EE000E70413073002638FE70209A8138761CB79
:100EF00023AEE1809D472316F4FE35A0FD57A307DE
:100F0000F4FE01000DA083C7118293F7F70F93F74A
:100F1000070491EBFD57A307F4FE31A0010021A0C7
:100F2000010011A0010083D761821397070141835B
:100F30009307F00363E7E70083D76182C207C183A9
:100F400019A0930700042316F4FE83A7C181035759
:100F5000C4FE3A86BE8513858184EF20104B03A71B
:100F6000C1818357C4FE3E9723AEE1806F00406E7F
:100F700083C7018293F7F70F2D47636EF76A1397C4
:100F80002700956793878715BA979C43828783D7F5
:100F90002182C207C183A183C207C18393F7F70FE0
:100FA0003D476360F7281397270095679387871855
:100FB000BA979C43828715671307871C23AEE1808D
:100FC000956783C7871C2316F4FE85A4B7370240B4
:100FD0009387074083C7870093F7F70F13F737000E
:100FE0008547631AF70005472386E182130700202F
:100FF0002395E18239A023860182130700042395FB
:10100000E18283C7C18213F7F70F8547631DF7029B
:1010100015671307072223AEE180956793870722A0
:1010200083C727001397070141839567938707229A
:1010300083C73700C207C183A207C207C183BA971B
:101040002316F4FEDDA215671307C71D23AEE1804A
:1010500095679387C71D83C72700139707014183AF
:1010600095679387C71D83C73700C207C183A2074F
:10107000C207C183BA972316F4FE45AA83D72182FB
:10108000C207C18393F7F70F05476387E702054758
:101090006344F70089CB95A00947638AE7020D47AF
:1010A0006382E70499A81387018123AEE18083C797
:1010B00001812316F4FEB1A015671307472623AE5E
:1010C000E180956783C747262316F4FE1DA81567A0
:1010D0001307472723AEE180956783C74727231669
:1010E000F4FE05A015671307C72823AEE1809567B6
:1010F00083C7C7282316F4FE29A0FD57A307F4FED3
:10110000010025A215671307472A23AEE1809567E2
:1011100083C7472A2316F4FE09AAFD57A307F4FE46
:1011200029A283C7C18213F7F70F8547631AF70611
:1011300095679387C71D83C727003E879567938769
:10114000C71D83C73700C207C183A207C207C18377
:10115000BA97F9173E8695679385E71DB707002074
:101160001385E707EF20702A370700201307C7070A
:1011700023AEE18095679387C71D83C72700139728
:101180000701418395679387C71D83C73700C2074F
:10119000C183A207C207C183BA972316F4FE71A0C8
:1011A00083C7C18293F7F70FADEB9567938707224B
:1011B00083C727003E8795679387072283C7370039
:1011C000C207C183A207C207C183BA97F9173E8637
:1011D000956793852722B70700201385A703EF2083
:1011E000D022370700201307870323AEE1809567DD
:1011F0009387072283C727001397070141839567C9
:101200009387072283C73700C207C183A207C2079B
:10121000C183BA972316F4FE09A8FD57A307F4FE6D
:1012200029A0FD57A307F4FE010083D76182C207FE
:10123000C1830357C4FE6376F7000357C4FE2393AC
:10124000E18283D761821397070141839307F003FB
:1012500063E7E70083D76182C207C18319A09307C0
:1012600000042316F4FE83A7C1810357C4FE3A8607
:10127000BE8513858184EF20501903A7C181835750
:10128000C4FE3E9723AEE180E1A683D72182C20748
:10129000C18313F7F70FA384E1825DAE83C7818218
:1012A00013F7F70F2384E18483D761821397070133
:1012B0004183854763F7E73805472393E18251A6C9
:1012C00083D72182C207C18313F7F70F2384E182FA
:1012D00005472387E182ADAE83C7118293F7F70FED
:1012E000FD8B85EB83D72182C207C18313F7F70FEC
:1012F0008547631CF70083C7D18293F7F70FF99BEB
:1013000013F7F70FA386E182A1A6FD57A307F4FE0A
:1013100081A683C7118293F7F70F13F7F701894767
:10132000631BF70683D72182C207C18393F7F70FA8
:10133000B9EF83D74182C207C18393F7F70F130731
:101340002008638AE700130730086385E70209472E
:10135000638BE70005A8B73702409387074009472A
:101360002381E70E2DA8B737024093870740A3815A
:10137000070E35A0B73702409387074009472383FC
:10138000E70E31A8FD57A307F4FE010009A8FD5799
:10139000A307F4FE75ACFD57A307F4FE55AC4DACA6
:1013A00083C7118293F7F70FFD8BCDEF83D721828F
:1013B000C207C18313F7F70F85476319F7029567D3
:1013C0009387C71D83C7770093F7070281CF83C731
:1013D000D18293F7F70F93E7170013F7F70FA38660
:1013E000E18295A4FD57A307F4FEB1AC83D7218217
:1013F000C207C18313F7F70F89476311F70683D735
:10140000418213970701418393070010630DF70290
:1014100083D7418213970701418393070020630418
:10142000F70283D741821397070141839307003066
:10143000630BF70083D7418213970701418393071A
:1014400000406312F72083C7818193F7F70F93E77A
:1014500007F813F7F70F238CE180F5A2FD57A307D8
:10146000F4FED5A283C7118293F7F70F13F7F701A4
:1014700089476318F70A83D72182C207C18393F78C
:10148000F70FC5E383D74182C207C18393F7F70FF4
:1014900013072008638AE70013073008638CE7040A
:1014A00009476386E70295A8B7370240938707404C
:1014B00083C7270E13F7F70FB7370240938707400C
:1014C000136737001377F70F2381E70EA1A8B7370B
:1014D00002409387074083C7370E13F7F70FB737DC
:1014E000024093870740136737001377F70FA381F4
:1014F000E70E0DA8B73702409387074083C7670EF2
:1015000013F7F70FB7370240938707401367370089
:101510001377F70F2383E70E31A0FD57A307F4FEDF
:1015200011A001000DA22384018483D76182139747
:1015300007014183854763FAE71005472393E1825A
:1015400029A22384018493878184A380070083C711
:10155000118293F7F70F13F7F7018947631CF70818
:1015600083D74182C207C18393F7F70F130720087F
:10157000638AE700130730086388E7040947638438
:10158000E702A5A0B73702409387074083C7270E1D
:1015900093F7F70F13F737008D47631DF7060547DD
:1015A0002384E18485A8B73702409387074083C727
:1015B000370E93F7F70F13F737008D47631EF704C5
:1015C00005472384E18489A8B73702409387074001
:1015D00083C7670E93F7F70F13F737008D47631F25
:1015E000F70205472384E18415A8FD57A307F4FEFD
:1015F000010035A083C7118293F7F70FFD8B85E3B8
:1016000083C7D18293F7F70F858B91CB094723844A
:10161000E18431A0010021A0010011A0010083D7C5
:101620006182139707014183894763F2E702094703
:101630002393E18229A8FD57A307F4FE11A8010016
:1016400001A8010031A0010021A0010011A00100AA
:101650000347F4FE9307F00F6311F702B737024018
:10166000938707402D47238DE70CB73702409387B8
:1016700007402D47A38DE70C5DA083C7118293F728
:10168000F70FE207E18763D2070683D761821397DA
:10169000070141839307000463E7E70083D7618272
:1016A000C207C18319A0930700042316F4FE83D751
:1016B00061821397070141838357C4FEB307F74044
:1016C0001397070141832393E182B7370240938741
:1016D00007400357C4FE239CE70CB73702409387AB
:1016E00007402147238DE70C1DA883D76182C207DD
:1016F000C18399EFB737024093870740239C070CBB
:10170000B7370240938707402147238DE70C01A894
:10171000B7370240938707402147A38DE70CB737BF
:10172000024093870740130700022385E70075A056
:101730008347B4FE858B9DCB23840182A3840182E1
:10174000A386018223870182B7370240938707402F
:10175000A3810700EFE0DFE60545092EB737024019
:101760009387074005472385E70085A88347B4FE94
:10177000918BA1CFB737024093870740114723854C
:10178000E7002945EF20A021B737024093870740A3
:1017900083C7970093F7F70F918B91CF83C7D182BF
:1017A00093F7F70F93E7270013F7F70FA386E1826C
:1017B00083C7D1821DA083C7D18293F7F70FF59B12
:1017C00013F7F70FA386E18209A8B7370240938782
:1017D00007400347B4FE2385E7000100724405611A
:1017E00073002030411106C622C40008854511450A
:1017F000EF106078854537050200EF10207C8545A5
:101800000545EF10A07B85450545EF1060728147C7
:101810003E85B240224441018280011106CE22CC95
:101820000010232004FE232204FE231404FE3705A7
:101830000040EF10F018930730062312F4FEB707AC
:10184000002003A70714B7470F0093870724B35757
:10185000F702C207C183FD17C207C1832310F4FE3C
:10186000231304FE231104FE930704FEBE853705EF
:101870000040EF107029854537050040EF10304DCE
:101880000546854537050040EF1070459307C002B7
:101890002326F4FE8327C4FEFD8B0547B316F7000D
:1018A00037E700E08327C4FE9583938707048A0700
:1018B000BA9794C3854537050040EF10D03C01002E
:1018C000F240624405618280397106DE22DC8000CC
:1018D0002326A4FCAE873287A305F4FCBA87230530
:1018E000F4FC232E04FC232004FE232204FE2324E4
:1018F00004FE232804FC232A04FC232C04FC914529
:10190000B717014013850780EF1000279147231870
:10191000F4FC8D47232AF4FCC147232CF4FC9307E5
:1019200004FDBE85B717014013850780EF10200224
:10193000B74700409387074083D7C7001397070135
:101940004183B7470040938707404D9B420741833F
:101950002396E700A1472318F4FC93078004232C67
:10196000F4FC930704FDBE85B7170140138507807B
:10197000EF00F07D91472318F4FC8D47232AF4FCF7
:10198000E147232CF4FC930704FDBE85B717014003
:1019900013850780EF00B07BE1772318F4FC8D47B7
:1019A000232AF4FCC147232CF4FC930704FDBE85D5
:1019B000B717014013850780EF0070798327C4FCB7
:1019C000232EF4FC231004FE0347B4FC8547631662
:1019D000F7008D672311F4FE21A80347B4FC894763
:1019E0006316F70089672311F4FE19A0231104FE82
:1019F0000347A4FC8547631AF7009307006023128E
:101A0000F4FE85672310F4FE05A00347A4FC894774
:101A1000631AF700930700402312F4FE8567231032
:101A2000F4FE19A0231204FE231404FEB14723136D
:101A3000F4FE9307C4FDBE85B747004013850740F9
:101A4000EF10B03D93050004B747004013850740F1
:101A5000EF10B06D8545B747004013850740EF1084
:101A600090580100F250625421618280797122D62F
:101A70000018AA87A30FF4FC239C01C8938781C98F
:101A800023910700938781C923920700938781C917
:101A900023830700938781C97947A383E70093874E
:101AA00081C923940700938781C9239507009387F1
:101AB00081C923960700A30704FE31A88347F4FEDB
:101AC000138781C98607BA97239707008347F4FED7
:101AD0008507A307F4FE0347F4FE8547E3F0E7FE1E
:101AE000938781C923890700938781C9239A0700B7
:101AF000938781C9239B0700938781C9238C0700A3
:101B0000938781C9239D0700938781C9238E07008E
:101B1000938781C9A38E070023A8018223AA01828B
:101B20008347F4FDB1C7938781C9238F070093874B
:101B300081C9130720FCA38FE700938781C905475C
:101B40002380E702938781C9A3800702938781C915
:101B500023810702938781C9A3810702938781C9E3
:101B600021472382E702938781C97947A382E7024D
:101B700001003254456182805D7186C6A2C480082E
:101B8000AA87232CB4FA232AC4FAA30FF4FA232237
:101B900004FC232404FC232604FC232804FC232A1D
:101BA00004FC232C04FC232E04FC232004FE23220B
:101BB00004FE232404FE232604FE8347F4FBB5EB36
:101BC000B707024013850708EF00D018B747004059
:101BD000938747402322F4FC832784FB2324F4FCCF
:101BE000C1472326F4FC832744FB2328F4FC232A43
:101BF00004FC93070008232CF4FC232E04FC232070
:101C000004FE232204FE85672324F4FE232604FE1B
:101C1000930744FCBE85B707024013850708EF0011
:101C200090448545B707024013850708EF00304E02
:101C300095A8B70702401385C706EF00B011B74754
:101C40000040938747402322F4FC832784FB23240E
:101C5000F4FC232604FC832744FB2328F4FC232ADA
:101C600004FC93070008232CF4FC232E04FC2320FF
:101C700004FE930700022322F4FE85672324F4FE6A
:101C8000232604FE930744FCBE85B7070240138554
:101C9000C706EF00503D8545B70702401385C706CC
:101CA000EF00F0460100B6402644616182800111D8
:101CB00006CE22CC0010AA872324B4FE3687A307C1
:101CC000F4FEB2872307F4FEBA87A306F4FE0146AA
:101CD00093050004B747004013850740EF10B03666
:101CE0008145B70702401385C706EF005042814582
:101CF000B707024013850708EF0070410347D4FE81
:101D00008347E4FE3A86BE85032584FEEFF0DFBB01
:101D10000146938541CC014585358567138607804B
:101D2000B7170020938547A00545B93505469305AB
:101D30000004B747004013850740EF10D0308347B9
:101D4000F4FE3E8525330100F24062440561828045
:101D5000011106CE22CC0010938781C983C71702D8
:101D600093F7F70FE2073E87938781C983C707027E
:101D700093F7F70FC207BA972326F4FE938781C91A
:101D800083C7F70193F7F70FA2073E87938781C9AF
:101D900083C7E70193F7F70FBA970327C4FEBA97F3
:101DA0002326F4FE938781C983C72702A305F4FE87
:101DB000938781C983C737022305F4FE0347A4FE36
:101DC0008347B4FEBA863E868325C4FE0145C535E9
:101DD000B737024093870740138741CCD8D3B73732
:101DE00002409387074083C7370E13F7F70FB737C3
:101DF000024093870740719B1377F70FA381E70E8B
:101E0000B737024013870740B73702409387074030
:101E10000347370E1377F70FA381E70E0100F24057
:101E2000624405618280411122C6000801003244EB
:101E3000410173002030411122C6000801A0411168
:101E400022C60008854537050040EF102073AA8799
:101E5000CDCBB92A938781C983C76700938781C98E
:101E600083C7670093F7F70F850713F7F70F93877B
:101E700081C92383E700138781C90347A70113772B
:101E8000F70F938781C983C7B70193F7F70FA207AD
:101E9000D98F139707014183C167FD17630EF704BC
:101EA000138781C90347A7011377F70F938781C968
:101EB00083C7B70193F7F70FA207D98FC207C18372
:101EC0008507139707014183938781C99375F70F9E
:101ED00083C6A701818A3686AE86D18E238DD70030
:101EE000218313160701418203C7B701018BBA860C
:101EF0003287558FA38DE700854537050040EF10E9
:101F0000E06E01003244410173002030011106CE21
:101F100022CC0010B1472317F4FE9567138547F3D1
:101F2000EF10105A0100938781C883C7270093F7E9
:101F3000F70FF5FB938781C8238107008357E4FEE1
:101F40003E8695679385072BB70700201385871C6E
:101F5000EF10B04BB7370240938707400357E4FEBA
:101F60002390E70EB73702409387074083C7270EB9
:101F700013F7F70FB737024093870740719B13772A
:101F8000F70F2381E70E938781C805472381E70078
:101F90008357E4FE0357E4FE3A86BE8595671385B2
:101FA000C7F6EF10F0510100F240624405618280F3
:101FB000411122C6000883A781831387170023AC31
:101FC000E1820100324441018280011106CE22CC1F
:101FD0000010CD22EF105018F16713850720EF1085
:101FE000902C9567138507F9EF10305F956713857F
:101FF00047F9EF10905E9567138507FCEF10F05DD1
:10200000B707002083A70714BE859567138587FE51
:10201000EF10104B2523AA87BE8595671385C7FF50
:10202000EF10104A9567138547F9EF10105BEFF03A
:102030006FFBEFF08FFE95671385C700EF10F05927
:10204000EFE04FD4EFE0CFD70545EFE0AFE995677C
:1020500013850704EF10705829A013054006EF10F0
:10206000501C83C7E18293F7F70FE5DB9567138573
:102070000708EF10905695671385070CEF10F05581
:10208000A30704FE0DA00347F4FEB70700209387C3
:10209000871CBA970347F4FE2380E7008347F4FECA
:1020A0008507A307F4FE0347F4FE9307F003E3FC60
:1020B000E7FCB737024093870740130700042390DB
:1020C000E70EB73702409387074083C7270E13F701
:1020D000F70FB737024093870740719B1377F70FCD
:1020E0002381E70E1305803EEF10B013956713852B
:1020F000870FEF10904E03A78183B1679387F73462
:10210000E3FBE7FE956713858712EF10104D23ACB4
:102110000182ED3B2945EF10D010F1BF411106C6F9
:1021200022C40008B71702409843B717024013674C
:10213000170098C3B7170240D443B71702403707B8
:10214000FFF0758FD8C3B71702409443B71702400A
:102150003707F7FE7D17758F98C3B7170240944372
:10216000B71702403707FCFF7D17758F98C3B71765
:102170000240D443B7170240370701FF7D17758F20
:10218000D8C3B71702409443B7170240370700EC93
:102190007D17758F98C3B71702403707FF0098C7A0
:1021A000B717024023A60702F12A0100B2402244D9
:1021B00041018280011122CE0010232204FE232639
:1021C00004FE232004FE232404FEB7170240DC4350
:1021D000B18B2322F4FE032744FE91476304F702E8
:1021E000032744FEA1476308F702832744FE639058
:1021F0000714B707002037177A001307072023A01A
:10220000E71481A2B707002037177A0013070720C9
:1022100023A0E7143DA2B7170240D843B7073C00FC
:10222000F98F2326F4FEB7170240D843C167F98F10
:102230002320F4FE8327C4FEC98389072326F4FEE6
:102240000327C4FE89476315F700C9472326F4FE18
:102250000327C4FEBD476318F700B5472326F4FEE5
:1022600085472324F4FE0327C4FEC1476315F70006
:10227000BD472326F4FE0327C4FEC5476315F700B8
:10228000C1472326F4FE832704FEB1E3B74702408B
:10229000938707809C43C18B91CF0327C4FEB71758
:1022A0007A00938707203307F702B707002023A09F
:1022B000E714B1A80327C4FEB7173D009387079022
:1022C0003307F702B707002023A0E71489A0B71748
:1022D0000240D843B7070200F98F91CF0327C4FE0D
:1022E000B7173D00938707903307F702B707002021
:1022F00023A0E71429A80327C4FEB7177A00938701
:1023000007203307F702B707002023A0E7140327AD
:1023100084FE85476316F702B707002083A70714DA
:1023200013D71700B707002023A0E71411A8B70799
:10233000002037177A001307072023A0E71411A005
:102340000100B7170240DC43918313F7F700B7078A
:1023500000209387070CBA9783C7070093F7F70FFE
:102360002322F4FEB707002003A70714832744FEA7
:102370003357F700B707002023A0E7140100724489
:1023800005618280411106C622C400083120010087
:10239000B240224441018280011122CE0010232646
:1023A00004FE232404FEB71702409443B7170240EB
:1023B0004167558F98C3B71702409843B70702008B
:1023C000F98F2324F4FE8327C4FE85072326F4FE19
:1023D000832784FE91E70327C4FE8567E31DF7FC8E
:1023E000B71702409843B7070200F98F89C785479E
:1023F0002324F4FE19A0232404FE032784FE85472A
:102400006312F70A37170240B71702405843D8C380
:1024100037170240B71702405843D8C3B7170240D6
:10242000D843B717024013670740D8C3B717024015
:10243000D443B71702403707C1FF7D17758FD8C344
:10244000B7170240D443B717024037072900558F0A
:10245000D8C3B71702409443B717024037070001AB
:10246000558F98C30100B71702409843B707000281
:10247000F98FF5DBB7170240D843B7170240719BBD
:10248000D8C3B7170240D843B717024013672700D5
:10249000D8C30100B7170240DC4313F7C700A147B8
:1024A000E31AF7FE010072440561828001A097E102
:1024B000FF1F93812149176100201301A1B4173533
:1024C00000001305E5E997E5FF1F9385A5B3138683
:1024D000818163FAC5008322050023A05500110500
:1024E0009105E3EAC5FE1385818197F5FF1F93856A
:1024F000E5D16377B500232005001105E36DB5FE36
:10250000FD42739002BCAD4273904280B7620000FE
:10251000938282087390023097E2FFFF9382C2AEEB
:1025200093E2320073905230EFF05FBF97020000E9
:102530009382E2A97390123473002030411122C6B5
:102540000008B7F7FF1F938747709C433E853244CE
:1025500041018280011122CE00102326A4FE832790
:10256000C4FE9843C167F9177D8F8327C4FE98C3C3
:102570008327C4FE23A007008327C4FE23A20700ED
:102580008327C4FE23A407008327C4FE23A60700D5
:102590000327C4FEB7070240A107631BF700B70774
:1025A0000240D843B70702401367F700D8C345ACD1
:1025B0000327C4FEB7070240F107631BF700B70704
:1025C0000240D843B70702401367070FD8C341AC96
:1025D0000327C4FEB707024093870703631DF70074
:1025E000B7070240D443B70702400567130707F057
:1025F000558FD8C3ADA40327C4FEB7070240938705
:102600004704631BF700B7070240D443B7070240F3
:102610003D67558FD8C3A1A40327C4FEB707024066
:1026200093878705631CF700B7070240D443B707B9
:10263000024037070F00558FD8C315A40327C4FEE7
:10264000B70702409387C706631CF700B70702402D
:10265000D443B70702403707F000558FD8C301A411
:102660000327C4FEB707024093870708631CF700DF
:10267000B7070240D443B70702403707000F558F12
:10268000D8C3F1AA0327C4FEB70702409387874047
:10269000631FF700B707024093870740D843B70787
:1026A0000240938707401367F700D8C34DAA03275A
:1026B000C4FEB70702409387C741631FF700B707FF
:1026C000024093870740D843B707024093870740EB
:1026D0001367070FD8C361A20327C4FEB7070240E0
:1026E000938707436311F702B707024093870740B8
:1026F000D443B7070240938707400567130707F0E5
:10270000558FD8C3A9AA0327C4FEB70702409387F1
:102710004744631FF700B707024093870740D4433D
:10272000B7070240938707403D67558FD8C305AA76
:102730000327C4FEB7070240938787456310F7025B
:10274000B707024093870740D443B70702409387F7
:10275000074037070F00558FD8C311A20327C4FEC7
:10276000B70702409387C7466310F702B7070240D6
:1027700093870740D443B707024093870740370742
:10278000F000558FD8C3E1A80327C4FEB707024065
:10279000938707486310F702B70702409387074003
:1027A000D443B7070240938707403707000F558F80
:1027B000D8C375A00327C4FEB70702409387074913
:1027C000631FF700B70702409387074DD843B70749
:1027D00002409387074D1367F700D8C349A003272A
:1027E000C4FEB70702409387074A631FF700B70785
:1027F00002409387074DD843B70702409387074DA0
:102800001367070FD8C3A1A80327C4FEB707024068
:102810009387074B6311F702B70702409387074D71
:10282000D443B70702409387074D0567130707F0A6
:10283000558FD8C32DA00327C4FEB7070240938746
:10284000074C631EF700B70702409387074DD44338
:10285000B70702409387074D3D67558FD8C30100E6
:10286000724405618280797122D60018232EA4FC5F
:10287000232CB4FC232604FE8327C4FD9C4323267B
:10288000F4FE0327C4FEE177BD07F98F2326F4FE8B
:10289000832784FD9847832784FD9C535D8F83277E
:1028A00084FD9C4B5D8F832784FDDC4B5D8F8327EC
:1028B00084FD9C4F5D8F832784FDDC4F5D8F8327D4
:1028C00084FDDC535D8F832784FD9C57D98F0327BC
:1028D000C4FED98F2326F4FE8327C4FD0327C4FE3C
:1028E00098C3832784FDD8478327C4FDD8C3832793
:1028F00084FD98438327C4FD98C7832784FDD8436C
:102900008327C4FDD8C7010032544561828001117C
:1029100022CE00102326A4FE2324B4FE832784FEA7
:1029200091CB8327C4FE9C4313E717008327C4FE83
:1029300098C311A88327C4FE9843C167F9177D8FF8
:102940008327C4FE98C301007244056182803971F7
:1029500022DE80002326A4FC2324B4FC232604FECC
:10296000232004FE232404FE232E04FC232204FE41
:10297000232C04FC832784FC9C47BD8B2326F4FE78
:10298000832784FC9C47C18B89CB832784FCDC4351
:102990000327C4FED98F2326F4FE832784FC83D724
:1029A000070093F7F70FF1CF8327C4FC9C43232242
:1029B000F4FE232404FE65A8832784FE0547B3178D
:1029C000F700232EF4FC832784FC83D707003E877F
:1029D0008327C4FDF98F2320F4FE032704FE8327F9
:1029E000C4FD6311F708832784FE8A07232EF4FCB5
:1029F0008327C4FD3D47B317F700232CF4FC83273E
:102A000084FD93C7F7FF032744FEF98F2322F4FECA
:102A10008327C4FD0327C4FEB317F700032744FE32
:102A2000D98F2322F4FE832784FC984793078002E2
:102A3000631BF700832784FE05473317F7008327BE
:102A4000C4FCD8CB05A0832784FC98479307800457
:102A5000631AF700832784FE05473317F70083279F
:102A6000C4FC98CB832784FE85072324F4FE032728
:102A700084FE9D47E3F2E7F48327C4FC032744FE6A
:102A800098C3832784FC03D707009307F00F63F1F3
:102A9000E70E8327C4FCDC432322F4FE232404FE38
:102AA00075A8832784FEA1070547B317F700232ED7
:102AB000F4FC832784FC83D707003E878327C4FD6B
:102AC000F98F2320F4FE032704FE8327C4FD63123D
:102AD000F708832784FE8A07232EF4FC8327C4FD8E
:102AE0003D47B317F700232CF4FC832784FD93C7DD
:102AF000F7FF032744FEF98F2322F4FE8327C4FD4A
:102B00000327C4FEB317F700032744FED98F2322FF
:102B1000F4FE832784FC984793078002631BF70029
:102B2000832784FEA10705473317F7008327C4FCDA
:102B3000D8CB832784FC984793078004631BF70056
:102B4000832784FEA10705473317F7008327C4FCBA
:102B500098CB832784FE85072324F4FE032784FE75
:102B60009D47E3F0E7F48327C4FC032744FED8C362
:102B70000100725421618280011122CE00102326AF
:102B8000A4FEAE872315F4FE0357A4FE8327C4FEDC
:102B900098CB0100724405618280397122DE800089
:102BA0002326A4FC232204FE232604FE232004FE65
:102BB000232E04FCA30504FEA30D04FCB71702405A
:102BC000DC43B18B2322F4FE032744FE91476303C9
:102BD000F702032744FEA1476306F702832744FE5A
:102BE000639D07208327C4FC37177A00130707204B
:102BF00098C329AC8327C4FC37177A001307072032
:102C000098C329A4B7170240D843B7073C00F98FEF
:102C10002326F4FEB7170240D843C167F98F23205B
:102C2000F4FE8327C4FEC98389072326F4FEB7F781
:102C3000FF1F9387C77098439167F98F91EB032724
:102C4000C4FEC5476319F704C9472326F4FEA1A0B3
:102C50000327C4FE89476315F700C9472326F4FEFE
:102C60000327C4FEBD476318F700B5472326F4FECB
:102C70008547A305F4FE0327C4FEC1476315F7008B
:102C8000BD472326F4FE0327C4FEC5476315F7009E
:102C9000C1472326F4FE832704FEA1E3B747024081
:102CA000938707809C43C18B89CF0327C4FEB71746
:102CB0007A00938707203307F7028327C4FC98C361
:102CC00039AA0327C4FEB7173D009387079033073F
:102CD000F7028327C4FC98C319A2B7170240D8573C
:102CE000C167F98FE9C7B7170240DC579183BD8BE5
:102CF000850737177A00130707203357F702832712
:102D0000C4FC98C3B7170240DC57A18393F7F70FB1
:102D1000BD8BA30DF4FC8347B4FD89EF8327C4FC6E
:102D20009843BA878A07BA9713D717008327C4FC3A
:102D300098C385A00347B4FD85476310F702832736
:102D4000C4FC9843BA878607BA978E07BA9713D7F9
:102D500017008327C4FC98C32DA80347B4FDBD47C3
:102D6000631EF7008327C4FC9843BA878A07BA9783
:102D70008A073E878327C4FC98C321A88327C4FC05
:102D80009C430347B4FD09073387E7028327C4FC4C
:102D900098C38327C4FC9843B7170240DC57BD8B08
:102DA00085073357F7028327C4FC98C339A8B717A0
:102DB0000240DC57BD8B850737177A0013070720C1
:102DC0003357F7028327C4FC98C38327C4FC984376
:102DD0008327C4FE3307F7028327C4FC98C3034745
:102DE000B4FE85476313F7028327C4FC9C4313D7C3
:102DF00017008327C4FC98C309A88327C4FC37178E
:102E00007A001307072098C311A00100B7170240EA
:102E1000DC4393F7070F2322F4FE832744FE9183BC
:102E20002322F4FEB70700201387070D832744FEF3
:102E3000BA9783C7070093F7F70F232EF4FC832775
:102E4000C4FC98438327C4FD3357F7008327C4FC91
:102E5000D8C3B7170240DC4393F707702322F4FE70
:102E6000832744FEA1832322F4FEB70700201387A3
:102E7000070D832744FEBA9783C7070093F7F70F20
:102E8000232EF4FC8327C4FCD8438327C4FD335787
:102E9000F7008327C4FC98C7B7170240D84391674F
:102EA00093870780F98F2322F4FE832744FEAD83A6
:102EB0002322F4FEB70700201387070D832744FE63
:102EC000BA9783C7070093F7F70F232EF4FC8327E5
:102ED000C4FCD8438327C4FD3357F7008327C4FCC1
:102EE000D8C7B7170240D843B167F98F2322F4FE41
:102EF000832744FEB9832322F4FEB70700201387FB
:102F00004714832744FEBA9783C7070093F7F70F48
:102F1000232EF4FC8327C4FCD8478327C4FD3357F2
:102F2000F7028327C4FC98CB010072542161828090
:102F3000011122CE00102326A4FE2324B4FE8327F1
:102F400084FE99CBB7170240D44BB7170240032732
:102F5000C4FE558FD8CB21A8B7170240D44B832786
:102F6000C4FE13C7F7FFB7170240758FD8CB010017
:102F7000724405618280011122CE00102326A4FE36
:102F80002324B4FE832784FE99CBB7170240944FC5
:102F9000B71702400327C4FE558F98CF21A8B71753
:102FA0000240944F8327C4FE13C7F7FFB7170240B0
:102FB000758F98CF0100724405618280011122CE85
:102FC00000102326A4FE2324B4FE832784FE99CB7D
:102FD000B7170240D44FB71702400327C4FE558FDE
:102FE000D8CF21A8B7170240D44F8327C4FE13C7F8
:102FF000F7FFB7170240758FD8CF01007244056103
:103000008280011122CE00102326A4FE2324B4FEC8
:10301000832784FE99CBB7170240D447B7170240E5
:103020000327C4FE558FD8C721A8B7170240D4473D
:103030008327C4FE13C7F7FFB7170240758FD8C7A1
:103040000100724405618280011122CE0010232606
:10305000A4FE2324B4FE832784FE99CBB717024035
:10306000944BB71702400327C4FE558F98CB21A875
:10307000B7170240944B8327C4FE13C7F7FFB71757
:103080000240758F98CB0100724405618280011166
:1030900022CE00102326A4FEB7170240D457B7173C
:1030A0000240370700F97D17758FD8D7B717024050
:1030B000D4578327C4FE13978701B7170240558F53
:1030C000D8D70100724405618280011122CE001020
:1030D0002326A4FEB7170240D457B717024037077C
:1030E00000F87D17758FD8D7B7170240D4578327BC
:1030F000C4FE1397B701B7170240558FD8D7010008
:10310000724405618280011122CE00102326A4FEA4
:10311000B7170240D457B7170240370700D07D17C2
:10312000758FD8D7B7170240D4578327C4FE13979B
:10313000C701B7170240558FD8D701007244056107
:103140008280011122CE00102326A4FE8327C4FE14
:1031500099CBB7170240D457B71702403707004042
:10316000558FD8D719A8B7170240D457B7170240C0
:10317000370700C07D17758FD8D7010072440561ED
:103180008280011122CE00102326A4FEB717024030
:10319000D457B7170240370700801347F7FF758FE2
:1031A000D8D7B7170240D4578327C4FE1397F70127
:1031B000B7170240558FD8D701007244056182804D
:1031C000011106CE22CC00102326A4FE0327C4FE44
:1031D000B7370140938707C0631DF70085458567B2
:1031E00013850780393D8145856713850780113D2B
:1031F00039A20327C4FEB7370140938707406319FC
:10320000F70085450965F53B81450965DD3BC5A8A6
:103210000327C4FEB7570140938707C0631BF7001D
:10322000854537050800F13B814537050800D13B4E
:10323000F9A00327C4FEB7570140631BF70085457B
:10324000370510007D3B8145370510005D3B45A8E3
:103250000327C4FEB70700406319F70085450545FD
:10326000E53381450545CD3359A80327C4FEB7078B
:103270000040938707406319F70085450945E93306
:1032800081450945D133A5A80327C4FEB7170040DF
:10329000938707806319F70085451145753381458C
:1032A00011455D33A9A80327C4FEB71700409387D3
:1032B00007C06319F70085452145793381452145CC
:1032C000613335A80327C4FEB71700406319F70020
:1032D00085454145953B81454145BD330DA00327BB
:1032E000C4FEB717004093870740631AF70085456F
:1032F00013050002913B814513050002B133010023
:10330000F240624405618280797122D60018232E32
:10331000A4FC232CB4FC231704FE8327C4FD83D70D
:1033200007002317F4FE0327C4FDB7370140938736
:1033300007C06306F7060327C4FDB7070040630014
:10334000F7060327C4FDB7070040938707406308CB
:10335000F7040327C4FDB717004093870780630075
:10336000F7040327C4FDB7170040938707C063081D
:10337000F7020327C4FDB737014093870740630076
:10338000F7020327C4FDB7570140938707C06308BE
:10339000F7000327C4FDB75701406311F7028357B5
:1033A000E4FE93F7F7F82317F4FE832784FD03D791
:1033B00027008357E4FED98F2317F4FE0327C4FDAB
:1033C000B71700406309F7020327C4FDB717004091
:1033D000938707406301F7028357E4FE93F7F7CF23
:1033E0002317F4FE832784FD03D767008357E4FE89
:1033F000D98F2317F4FE8327C4FD0357E4FE2390DF
:10340000E700832784FD03D747008327C4FD239665
:10341000E702832784FD03D707008327C4FD239495
:10342000E7020327C4FDB7370140938707C063084D
:10343000F7020327C4FDB7370140938707406300B5
:10344000F7020327C4FDB7570140938707C06308FD
:10345000F7000327C4FDB7570140631DF70083271A
:1034600084FD83C787001397070141838327C4FD29
:103470002398E7028327C4FD0547239AE70001004C
:10348000325445618280011122CE00102326A4FE11
:103490002324B4FE832784FE8DC38327C4FE83D7F1
:1034A0000700C207C18393E7170013970701418301
:1034B0008327C4FE2390E70039A88327C4FE83D75F
:1034C0000700C207C183F99B139707014183832734
:1034D000C4FE2390E700010072440561828001115F
:1034E00022CE00102326A4FEAE872322C4FE23157D
:1034F000F4FE832744FE9DC38327C4FE83D7C70001
:103500001397070141838357A4FED98F13970701AF
:1035100041838327C4FE2396E70035A08327C4FE9A
:1035200083D7C7001397070141838357A4FE93C72E
:10353000F7FFC207C183F98F1397070141838327E0
:10354000C4FE2396E70001007244056182800111E8
:1035500022CE00102326A4FEAE872315F4FE835747
:10356000A4FE93C7F7FF1397070141838327C4FE87
:103570002398E7000100724405618280797122D6A8
:103580000018232EA4FCAE87231DF4FC232604FE82
:10359000231504FE231404FE8327C4FD83D70701EB
:1035A0001397070141838357A4FDF98F2315F4FE78
:1035B0008327C4FD83D7C70013970701418383572F
:1035C000A4FDF98F2314F4FE8357A4FE81CB835707
:1035D00084FE89C785472326F4FE19A0232604FE0E
:1035E0008327C4FE3E85325445618280011122CE7C
:1035F00000102326A4FEAE872315F4FE8357A4FEF5
:1036000093C7F7FF1397070141838327C4FE2398CD
:10361000E70001007244056182805D7186C6A2C424
:103620008008232EA4FA232CB4FA232404FE232694
:1036300004FE232204FE232004FE232E04FC832701
:10364000C4FB232EF4FC8327C4FB83D70701C207E6
:10365000C1832324F4FE032784FEB567FD17F98F89
:103660002324F4FE832784FB83D767003E878327C8
:1036700084FED98F2324F4FE832784FE1397070149
:1036800041838327C4FB2398E7008327C4FB83D7A8
:10369000C700C207C1832324F4FE032784FEBD674D
:1036A0009387379FF98F2324F4FE832784FB03D766
:1036B0004700832784FB83D78700D98F139707019F
:1036C0004183832784FB83D7A700D98FC207C18397
:1036D0003E87832784FED98F2324F4FE832784FE2C
:1036E0001397070141838327C4FB2396E7008327B1
:1036F000C4FB83D74701C207C1832324F4FE0327F9
:1037000084FEC1679387F7CFF98F2324F4FE8327C4
:1037100084FB83D7C7003E87832784FED98F232469
:10372000F4FE832784FE1397070141838327C4FB9C
:10373000239AE700930784FC3E85EFF00FC603272A
:10374000C4FDB7470140938707806317F7008327BD
:1037500044FD2326F4FE29A0832704FD2326F4FE3E
:103760000327C4FEBA878607BA978E073E9783273A
:1037700084FB9C438A07B357F7022322F4FE0327F6
:1037800044FE93074006B357F70292072324F4FE42
:10379000832784FE13D7470093074006B307F70239
:1037A000032744FEB307F7402320F4FE832704FEDB
:1037B00092071387270393074006B357F702BD8B81
:1037C000032784FED98F2324F4FE832784FE1397D6
:1037D000070141838327C4FB2394E7000100B6401F
:1037E000264461618280011122CE00102326A4FEAE
:1037F0002324B4FE832784FE95C38327C4FE83D786
:10380000C7001397070141838967D98F1397070171
:1038100041838327C4FE2396E70015A08327C4FEB7
:1038200083D7C700139707014183F977FD17F98FF5
:103830001397070141838327C4FE2396E700010005
:10384000724405618280011122CE00102326A4FE5D
:10385000AE872322C4FE2315F4FE832744FE9DC3B6
:103860008327C4FE83D747011397070141838357FA
:10387000A4FED98F1397070141838327C4FE239A9F
:10388000E70035A08327C4FE83D7470113970701BC
:1038900041838357A4FE93C7F7FFC207C183F98F03
:1038A0001397070141838327C4FE239AE700010091
:1038B000724405618280011122CE00102326A4FEED
:1038C000AE872315F4FE8357A4FE93F7F71F1397D3
:1038D000070141838327C4FE2392E700010072445D
:1038E00005618280797122D60018232EA4FCAE8750
:1038F000231DF4FC232604FE8327C4FD83D7070081
:103900001397070141838357A4FDF98FC207C18331
:1039100089C785472326F4FE19A0232604FE8327A2
:10392000C4FE3E85325445618280011122CE0010D2
:103930002326A4FEAE872315F4FE8357A4FE93C767
:10394000F7FF1397070141838327C4FE2390E70005
:103950000100724405618280411122C60008B70748
:10396000002003A70714B7177A0093870720B357DF
:10397000F70213F7F70F238EE18283C7C1831397F2
:10398000070141839307803EB307F70213970701AE
:103990004183239FE1820100324441018280797199
:1039A00022D60018232EA4FC37F700E0544337F743
:1039B00000E0F99A54C303C7C183BA860327C4FD44
:1039C0003307D7022326E4FE37F700E08326C4FE40
:1039D000B68701481CCB232A0701B7F700E09843BC
:1039E000B7F700E01367070198C3B7F700E0984303
:1039F000B7F700E01367170298C30100B7F700E0BC
:103A0000DC4313F717008547E31AF7FEB7F700E02A
:103A10009843B7F700E0799B98C3010032544561A1
:103A20008280797122D60018232EA4FC37F700E09B
:103A3000544337F700E0F99A54C303D7E183BA86B9
:103A40000327C4FD3307D7022326E4FE37F700E03F
:103A50008326C4FEB68701481CCB232A0701B7F78B
:103A600000E09843B7F700E01367070198C3B7F782
:103A700000E09843B7F700E01367170298C301000E
:103A8000B7F700E0DC4313F717008547E31AF7FEAA
:103A9000B7F700E09843B7F700E0799B98C30100BF
:103AA000325445618280397106DE22DC8000232693
:103AB000A4FC854537050400EFF04FD0854521452E
:103AC000EFF06FCB930700402312F4FE8D472324C1
:103AD000F4FEE1472326F4FE930744FEBE85B717A4
:103AE0000140138507C0EFE09FE68327C4FC232A2B
:103AF000F4FC231C04FC231D04FC231E04FC2310E3
:103B000004FEA147231FF4FC930744FDBE85B7576D
:103B1000004013850780EFF05FB08545B757004040
:103B200013850780EFF03FCC0100F2506254216111
:103B30008280797106D622D40018232EA4FC232C6F
:103B4000B4FC232AC4FC232604FE232604FE91A0F1
:103B5000010093050004B757004013850780EFF07C
:103B60007FD8AA87FDD7832784FD13871700232CCE
:103B7000E4FC83870700C207C183BE85B7570040B6
:103B800013850780EFF03FD38327C4FE85072326E4
:103B9000F4FE0327C4FE832744FDE34BF7FA832793
:103BA00044FD3E85B250225445618280011122CEEF
:103BB00000102326A4FE03A781808327C4FE3E971E
:103BC000B717002093878720636DF70003A78180D4
:103BD0008327C4FE3E97B78700209387078063F44E
:103BE000E700FD5739A803A781808327C4FE3E97CD
:103BF00023A4E18003A781808327C4FEB307F0409C
:103C0000BA973E85724405618280B3C7A5008D8B4B
:103C10003307C50081E78D4763EEC700AA8763704D
:103C2000E50A83C6050085078505A38FD7FEE3EA6D
:103C3000E7FE828093763500AA8791CA83C6050085
:103C400085078505A38FD7FE93F63700FDB79376DA
:103C5000C7FF138606FE63F0C70683A3050083A291
:103C6000450083AF850003AFC50083AE050103AEF9
:103C7000450103A3850183A8C5019385450223A0BF
:103C8000770003A8C5FF23A2570023A4F70123A6AA
:103C9000E70123A8D70123AAC70123AC670023AEFD
:103CA00017019387470223AE07FF75B7904191072D
:103CB000910523AEC7FEE3EBD7FEE3E4E7F682808F
:103CC00039713EDA2ED232D436D63AD842DC46DECC
:103CD0009387C18022CC804326CA06CEAA8409C419
:103CE0001C4C99E3228515230C445410268622850A
:103CF00036C6EF007016F2406244D24421618280E1
:103D0000011126CA4AC806CE22CC4EC652C4AA8485
:103D10002E8901C51C4D91E3CD299C4C804499E32B
:103D20002685E521971700009387C75B631CF40283
:103D3000C0408357C400A18BB1C71C48A1C7FD591F
:103D4000294A1C4483450900FD17B1E91CC463DE00
:103D500007062286A94526857120FD576308F502CE
:103D6000294535A0971700009387C7596314F400BD
:103D70008044C1B7971700009387C754E31BF4FA38
:103D8000C04445BFA2852685312A55D97D55F240CC
:103D90006244D2444249B249224A056182801CC42D
:103DA000050963D70700184C63CBE7006389450119
:103DB0001C401387170018C02380B70059B722860C
:103DC00026850D20E31F35F7D1B71C401387170058
:103DD00018C029472380E70061B79387C180AA856F
:103DE000884339BF011122CC26CA4AC806CE4EC626
:103DF000AA842E89328401C51C4D91E3392197177D
:103E000000009387274E6319F406C0401C4C1CC465
:103E10008357C400A18BC9C31C48BDCF1C480840B0
:103E20009379F90F1379F90F1D8D5C486346F500FE
:103E3000A2852685652C2DE51C440505FD171CC4AF
:103E40001C401387170018C0238037015C48638922
:103E5000A7008357C400858B81CBA9476316F9005F
:103E6000A285268561240DEDF24062444A85D24444
:103E70004249B249056182809717000093878748BD
:103E80006314F400804459B7971700009387874361
:103E9000E31EF4F6C0449DBFA285268521203DDDAA
:103EA0007D59D9B741119387C18026C2844322C46A
:103EB0004AC006C62A892E8489C49C4C99E326856B
:103EC000A926971700009387E741631CF402C040BE
:103ED0000317C40093170701C18393F68700B5EE5B
:103EE00093F607019DEEA5472320F9001367070409
:103EF0002316E4007D55B240224492440249410118
:103F00008280971700009387E73F6314F400804492
:103F1000C1B7971700009387E73AE31BF4FAC04450
:103F200045BF918B8DC74C5889C99307440463845E
:103F3000F5004A85352B232A04028357C400232227
:103F4000040093F7B7FD2316F4001C481CC08357E8
:103F5000C40093E787002316F4001C4881EF8357C1
:103F6000C4001307002093F707286385E700A285A4
:103F70004A8585218357C40013F7170005C75C489D
:103F800023240400B307F0401CCC1C480145A5F7CE
:103F90008317C40013F7070839DF93E707042316D4
:103FA000F40089BF898B014791E3584818C4F1BFD9
:103FB00083D7C500011122CC26CA06CE4AC84EC6F8
:103FC00013F78700AA842E8471EFD841634DE00077
:103FD000B841634AE0000145F2406244D24442499C
:103FE000B2490561828058547DD703A90400939695
:103FF000370123A0040063DD060670488357C40020
:10400000918B99C75C401D8E5C5899C33C401D8EB6
:104010005C540C50814626858297FD570357C40097
:10402000631DF5009440F54763E8D706B7074020C5
:104030008507B3D7D700858BA5C31C48232204006E
:104040001CC09317370163D80700FD576314F500B0
:104050009C4091E368C84C5823A02401ADDD930730
:1040600044046384F50026852121232A0402A5B790
:104070000C500146854626850297FD572A86E31F88
:10408000F5F69C40A5DF75476385E70059476394C3
:10409000E70423A0240181B7136707042316E40073
:1040A0007D551DBF83A90501E38709F203A905001A
:1040B0008D8B23A0350133093941014791E3D8495C
:1040C00018C4E35A20F11C540C50CA864E8626852B
:1040D00082976349A0008357C40093E7070423161F
:1040E000F4007DBFAA993309A940E1BF9C49B9CF2B
:1040F000011122CC06CE2A8411C51C4D81E72EC6A3
:104100002922B245971700009387C71D639BF500CE
:104110004C408397C50095C722856244F2400561F3
:1041200041BD971700009387E71D6394F5000C4489
:10413000CDB7971700009387E718E39CF5FC4C4434
:10414000C9BFF24062440145056182800145828019
:10415000411122C406C62A842316B5002317C500C0
:104160002320050023220500232405002322050621
:1041700023280500232A0500232C0500214681451C
:104180001305C505EFC0CF8397170000938727B5A8
:104190005CD097170000938787B71CD4971700004F
:1041A0009387C7BB5CD497170000938787BE00D066
:1041B0001CD8B240224441018280970500009385BB
:1041C00025F3A9A2411126C2130680069384F5FFA8
:1041D000B384C4024AC02E8922C406C6938544070C
:1041E000252E2A8401CD2320050023222501310517
:1041F00008C4138684068145EFB09FFC2285B24037
:10420000224492440249410182801C4DADE3411198
:1042100006C622C497070000938767FA1CD59387C8
:1042200041819C43232405042326050423280504F7
:104230006314F50085471CCD2A841D2848C02285BB
:10424000052808C422852D2048C4484001469145D0
:10425000013708440546A545E53D48440946C9459A
:10426000C53D85471CCCB2402244410182808280FA
:1042700041119387418126C284434AC006C69C4CA3
:1042800022C42A8999E3268549379384840480448B
:10429000DC40FD1763D607009C40B9CF8440C5BF02
:1042A0000317C40039E7C1778507232204062320BA
:1042B000040023220400232404005CC423280400F7
:1042C000232A0400232C0400214681451305C4053C
:1042D000EFB01FEF232A0402232C0402232404043A
:1042E000232604042285B24022449244024941011B
:1042F00082801304840671BF91454A85E13588C0E8
:1043000051FDB1472320F9000144E9BF797122D45E
:104310004AD052CC56CA5AC85EC606D626D24ECE0F
:104320002A8AAE8A130485040149054BFD5B09EC1A
:10433000B25022544A8592540259F249624AD24AF2
:10434000424BB24B45618280044483294400FD19ED
:1043500063D409000040E1BF83D7C400637BFB0046
:104360008397E40063877701A6855285829A336933
:10437000A90093848406E1BF1971A6DAAE848395FF
:10438000E500A2DC86DE328463DC050083D7C4004E
:1043900023A0060093F7070885E7930700401DA0B8
:1043A000300836C6EF007025B246E34105FE72477D
:1043B000BD67F98F7977BA9793B717009CC2F1BFA1
:1043C000930700041CC0F6506654D6540145096199
:1043D000828083D7C500011122CC06CE26CA4AC8E6
:1043E000898B2E8489CF930774041CC01CC8854711
:1043F0005CC8F2406244D244424905618280740044
:104400003000AA84953FA2452A892685312201EDF4
:104410008317C40013F7072069FFF19B93E7270078
:104420002316F400C9B797070000938747D99CD497
:104430008357C40008C008C893E707082316F40090
:10444000A2475CC8B24791CF8315E4002685EF00F0
:10445000F01D01C98357C400F19B93E71700231691
:10446000F4008357C4003369F9002316240151B7BF
:10447000DDC183A7C5FF411122C406C626C213842D
:10448000C5FF63D307003E94AA84EF0010229387F0
:1044900001849C4381EF2322040023A081842244D1
:1044A000B2402685924441016F005020637EF400A3
:1044B00014403307D4006396E7009843DC433697F3
:1044C00018C05CC0D9BFBA87D84319C3E37DE4FEE6
:1044D00094433386D700631F86001040B29694C37E
:1044E0003386D700E31DC7FA10435843B29694C3EE
:1044F000D8C375B76375C400B1479CC04DB71040B1
:10450000B306C4006316D70014435843B29614C0D0
:1045100058C0C0C369B78280011126CA9384350090
:10452000F19806CE22CC4AC84EC6A104B14763F327
:10453000F404B14463E2B4042A89EF0010179387AE
:10454000018498433A8439E0938741849C4391E7FE
:1045500081454A85912F23A2A184A6854A85A92752
:10456000FD5963193507B1472320F9004A85EF004B
:10457000F01329A0E3D004FCB1471CC10145F2406F
:104580006244D2444249B249056182801C40858F11
:1045900063CF0702AD4663F6F6001CC03E9404C02C
:1045A00031A05C406313870223A0F1844A85EF00A9
:1045B000F00F1305B4009307440061993307F540E9
:1045C0005DDF3A94898F1CC05DBF5CC3C5B722878D
:1045D000404095BF130435007198E30285FCB30594
:1045E000A4404A85D125E31C35FBB5BF1C46FD1709
:1045F0001CC663DA0700184E63C5E700A947639439
:10460000F5006FF02FFE1C422E851387170018C28D
:104610002380B7008280011122CC26CA4AC84EC628
:1046200052C406CE2A89AE893284B304D6007D5A9C
:1046300063149400014509A8834504004E864A8509
:1046400075370504E31645FFF2406244D2444249FF
:10465000B249224A05618280357122CD26CB4AC9F2
:104660004EC706CF52C556C35AC1DEDEE2DCE6DADB
:10467000AA89AE843289368409C51C4D99E3EFF0CE
:10468000DFB8971700009387E7C5639BF40C83A4FA
:10469000490083D7C400A18BF5C79C48E5C79307A1
:1046A0000002A304F1029307000302D22305F102E2
:1046B00022C6930B5002971A0000938AAAC6054C93
:1046C000294B4A848347040099C36390770FB30C46
:1046D0002441638D0C00E6864A86A6854E85253FDB
:1046E000FD576306F51E9256E69636D283470400C0
:1046F000638F071CFD571309140002C802CE3ECA7F
:1047000002CCA309010482D48345090015465685CD
:10471000412713041900C24759E913F7070109C7D4
:1047200013070002A309E10413F7870009C7130761
:10473000B002A309E104834609001307A0026380C5
:10474000E608F2474A84814625460347040093055C
:104750001400130707FD6379E60AB5CA3ECE85A8A3
:1047600097170000938707BA6395F40083A4890024
:104770000DB7971700009387E7B4E39CF4F083A488
:10478000C90001BFA6854E85EFF0CFF109D97D554F
:10479000FA406A44DA444A49BA492A4A9A4A0A4BD0
:1047A000F65B665CD65C0D618280050421BF330533
:1047B00055413315AC00C98F3EC82289B1B7324785
:1047C00093064700184336C6634907023ACE0347AB
:1047D00004009307E002631FF704034714009307E4
:1047E000A002631BF702B2470904138747009C43EA
:1047F0003AC663C107023ECA35A83307E04093E7D3
:1048000027003ACE3EC8E1B7B387670385462E84BA
:10481000BA9725BFFD57C5B7050402CA814681472F
:1048200025460347040093051400130707FD63762C
:10483000E606F1F2834504000D4617150000130546
:10484000E5AEB92511CD97170000938727AE1D8DD2
:1048500093070004B397A700424505045D8D2AC85D
:1048600083450400194617150000130565AC1309AC
:1048700014002304B102292D3DC197B7FFFF938790
:10488000677895E74247B2471377071009CF91073A
:104890003EC69257D2973ED22DB5B3876703854661
:1048A0002E84BA97BDBF9D07E19BA107D5B77800BD
:1048B00097060000938666D626860C084E859700DC
:1048C0000000E7000000FD572A8AE314F5FC83D7B7
:1048D000C40093F70704E39C07EA125555BD78001E
:1048E00097060000938666D326860C084E85012A1B
:1048F000D9BF797156CA9C49BA8A984522D426D222
:104900004ECE52CC06D64AD05AC85EC6AA892E844C
:10491000B284368A63D3E700BA879CC00347340465
:1049200019C385079CC01C4093F7070281C79C40B0
:1049300089079CC00329040013796900631A0900E0
:10494000130B9401FD5B5C449840998F634CF90410
:104950001C408346340493F70702B336D000A5EB1E
:1049600013063404D2854E85829AFD576303F504FD
:104970001C4011469840998B544481446397C7006A
:10498000B384E64063D3040081441C441848635454
:10499000F700998FBE94014969047D5B63982405F3
:1049A000014509A885465A86D2854E85829A631E9E
:1049B00075017D55B250225492540259F249624A0F
:1049C000D24A424BB24B456182800509ADBF3307E5
:1049D000D40013060003A301C704034754049387BC
:1049E0001600A2978906A381E7049DBF854622860B
:1049F000D2854E85829AE30E65FB050945B779712C
:104A000022D426D24AD04ECE06D652CC56CA5AC846
:104A1000B68983C68501930790063289AA842E84BD
:104A200013863504638DF60263E2D706930780058B
:104A30006388F61863EDD70063810622930730047C
:104A4000638EF60A930A24042301D404C9A09307B1
:104A500030066385F60A93074006E395F6FE1C4090
:104A6000084393F6070893054500C5C61C410CC3CF
:104A700063D807001307D002B307F040A301E40492
:104A8000971600009386468B29476DA89307000769
:104A90006384F61663E5D7029307E006638BF61886
:104AA0009307F006E390F6FA0C401C4313F8050850
:104AB000138547006307080608C39C438DA8930726
:104AC0005007E383F6FE93078007638BF612930784
:104AD0003007E399F6F61C43D041814593864700A1
:104AE00014C383AA07005685652601C533055541C1
:104AF00048C05C401CC8A301040471A81C43930A6D
:104B00002404938647009C4314C32301F40485477F
:104B1000D5B793F607041C410CC3B9DAC207C187A5
:104B200081BF93F5050408C3C9D983D707001307CC
:104B3000F0066388E60E970600009386E67F294715
:104B4000A30104044C400CC463C5050008406D99E2
:104B500008C099E3B28A91CDB28AB3F5E702FD1A93
:104B6000B69583C505002380BA00B3D5E70263F08C
:104B7000E70CA147631EF7001C40858B91CB584082
:104B80001C4863C7E70093070003A38FFAFEFD1AD2
:104B90003306564110C84E87CA867000A285268506
:104BA000EFF03FD57D5A631E450B7D55B250225420
:104BB00092540259F249624AD24A424B456182807C
:104BC000A382D50497060000938606770C4008431D
:104BD00013F805081C411105630D080208C313F7FB
:104BE000150001C793E505020CC04147B1FB0C401D
:104BF00093F5F5FD0CC0A9B79C4193E707029CC152
:104C000093078007A302F4049706000093860674B6
:104C100075BF13F8050408C3E30308FCC207C1838A
:104C20007DBF9706000093862671214711BFAE878E
:104C30002DB794411C43CC4913F80608138547004F
:104C40006306080008C39C438CC301A808C393F6FD
:104C500006049C43F5DA2390B70023280400B28AA7
:104C60001DBF14485686CA8526858299E30F45F3F1
:104C70001C40898B8DE7B2474844E359F5F23E85E5
:104C800035B785465686CA8526858299E30F65F134
:104C9000050A5C443247998FE345FAFEE9BF014AB1
:104CA000930A94017D5BF5B7411122C42A842E85B5
:104CB00097C7FF1F23AA075406C6EFE03FEFFD5733
:104CC0006319F50097C7FF1F938707549C4391C34F
:104CD0001CC0B240224441018280411122C42E8472
:104CE0008395E50006C6E122634905007C48AA9742
:104CF0007CC8B2402244410182808357C4007D7742
:104D00007D17F98F2316F400EDB783D7C500011185
:104D100022CC26CA4AC84EC606CE93F70710AA84EC
:104D20002E843289B68991C78395E500894601466C
:104D300035228357C4007D777D17F98F2316F40041
:104D40008315E4006244F240CE864A86B249424965
:104D50002685D24405613DA8411122C42E84839545
:104D6000E50006C6E528FD570357C400631BF500A0
:104D7000FD77FD17F98F2316F400B240224441015C
:104D800082808567D98F2316F40068C8FDB78395A4
:104D9000E50025A8411122C42A842E85B2853686D5
:104DA00097C7FF1F23A2074606C6EFE09FD8FD570F
:104DB0006319F50097C7FF1F938707459C4391C36D
:104DC0001CC0B240224441018280411122C42A8485
:104DD0002E8597C7FF1F23A9074206C61922FD5734
:104DE0006319F50097C7FF1F938707429C4391C340
:104DF0001CC0B240224441018280411122C42A8455
:104E00002E85B28597C7FF1F23A0074006C6D52071
:104E1000FD576319F50097C7FF1F9387E73E9C4333
:104E200091C31CC0B240224441018280411122C47E
:104E30002A842E8597C7FF1F23A8073C06C6D120CA
:104E4000FD576319F50097C7FF1F9387E73B9C4306
:104E500091C31CC0B240224441018280411122C44E
:104E60002A842E85B285368697C7FF1F23AE073862
:104E700006C64520FD576319F50097C7FF1F9387A6
:104E8000A7389C4391C31CC0B24022444101828098
:104E900093F5F50F2A966314C50001458280834778
:104EA0000500E38DB7FE0505FDB7828082804111C4
:104EB00022C42A842E85B285368697C7FF1F23A574
:104EC000073406C6B928FD576319F50097C7FF1FB9
:104ED000938787339C4391C31CC0B2402244410155
:104EE00082809307800517C7FF1F232FF7307D555A
:104EF00082809307800517C7FF1F2327F7307D5552
:104F000082809307800517C7FF1F232FF72E0145C7
:104F100082809307800517C7FF1F2327F72E7D5533
:104F200082809307800517C7FF1F232FF72C7D551D
:104F300082800000496E74656E74616E646F2065D6
:104F40006E7669617220706F72205553422E2E2E3C
:104F5000202F20417474656D7074696E67205553FD
:104F6000422073656E642E2E2E200000656E7669D9
:104F700061646F73202564206279746573202F202B
:104F800073656E742025642062797465730D0A0060
:104F90000D0000002A2A2A2A2A2A2A2A2A2A2A2A0C
:104FA0002A2A2A2A2A2A2A2A2A2A2A2A2A2A2A2A61
:104FB0002A2A2A2A2A2A2A2A2A2A2A2A2A2A0D0098
:104FC00055534220434443204578616D706C652001
:104FD000666F72204348333256333037202855539A
:104FE00042204853290D000053797374656D436C5A
:104FF0006B3A256420487A0D0A0000004368697006
:1050000049443A253038780D0A000000496E69633A
:1050100069616C697A616E646F2055534220485310
:105020002E2E2E202F20496E697469616C697A6971
:105030006E67205553422048532E2E2E0D0000003F
:105040004573706572616E646F20656E756D657213
:10505000616369F36E205553422E2E2E202F205768
:10506000616974696E6720666F72205553422065CE
:105070006E756D65726174696F6E2E2E2E0D000057
:10508000A155534220656E756D657261646F206530
:105090007869746F73616D656E746521202F20557A
:1050A000534220656E756D65726174656420737519
:1050B000636365737366756C6C79210D0000000085
:1050C000456E7669616E646F2070617472F36E2054
:1050D0006465207072756562612E2E2E202F20531C
:1050E000656E64696E672074657374207061747492
:1050F00065726E2E2E2E0D00496E696369616E64B5
:105100006F206275636C65207072696E636970618F
:105110006C202F205374617274696E67206D616911
:105120006E206C6F6F700D003520736567756E644F
:105130006F73207472616E736375727269646F73DA
:10514000202F2035207365636F6E647320656C615A
:10515000707365640D00000042150000D812000055
:1051600036160000A0130000361600008A12000058
:105170008E0F0000361600009C120000C0120000C6
:10518000261500003E16000022120000B60F000097
:10519000CC0F00007C100000221200002212000040
:1051A000041100002211000022120000221200004F
:1051B000221200002212000022120000221200001F
:1051C000221200001A110000120100020200004029
:1051D000861A0CFE010001020301000009024300CF
:1051E00002010080320904000001020201000524CE
:1051F0000010010524010001042402020524060018
:10520000010705830340000109040100020A0000B0
:10521000000705020240000007058202400000006E
:105220000902430002010080320904000001020269
:1052300001000524001001052401000104240202DC
:10524000052406000107058303400001090401004D
:10525000020A0000000705020200020007058202A0
:10526000000200000E037700630068002E00630058
:105270006E0000001603550053004200200053004A
:1052800065007200690061006C00000016033000C8
:10529000310032003300340035003600370038006A
:1052A000390000000A060002FFFFFF400100000075
:1052B000486F6C61204D756E646F0D0A0000000030
:1052C00000000000000000000000000000000000DE
:1052D00000000000000000000000000000000000CE
:1052E00000000000000000000000000000000000BE
:1052F00000000000000000000000000000000000AE
:10530000000000000000000000000000000000009D
:10531000000000000000000000000000000000008D
:10532000232D302B20000000686C4C00656667451B
:105330004647000030313233343536373839414250
:1053400043444546000000003031323334353637AF
:0C5350003839616263646566000000008B
:10535C00000000000000000000AAAAAAAAAAAAAA9B
:10536C00AAEEEEEEEEEEEEEEEEFEFFFFFFFFFFFF1F
:10537C00FFFFFFFFFF7FBFDFEFF7FBFDFC7EBFDF13
:10538C00EFF7FBFD7E0000000907000000000000A5
:10539C000000000000000000000000000000000001
:1053AC0000000000000000000000000000000000F1
:1053BC0000000000000000000000000000000000E1
:1053CC0000000000000000000000000009070000C1
:1053DC0000000000000000000000000000000000C1
:1053EC0000000000000000000000000000000000B1
:1053FC0000000000000000000000000000000000A1
:10540C000000000000000000000000000000000090
:10541C000000000000000000010203040607080958
:10542C00000000000102030401020304060708093E
:10543C0000000000E052000000530000C0520000C9
:10544C000000000000000000000000000000000050
:10545C000000000000000000000000000000000040
:10546C000000000000000000000000000000000030
:10547C000000000000000000000000000000000020
:10548C000000000000000000000000000000000010
:10549C0000D8B8050204060808120020E00000201D
:0854AC0004030904E0000020E4
:00000001FF
